:020000040800F2
:10000000244D002089010008FD010008FD010008C1
:10001000FD010008FD010008FD01000800000000CE
:100020000000000000000000000000008D0F00082C
:10003000FD0100080000000085100008D510000830
:10004000FD010008FD010008FD010008FD01000898
:10005000FD010008FD010008FD010008FD01000888
:10006000FD010008FD010008FD010008FD01000878
:10007000FD010008FD010008FD010008FD01000868
:10008000FD010008FD010008FD010008FD01000858
:10009000FD010008FD010008FD010008FD01000848
:1000A000FD010008FD010008FD010008FD01000838
:1000B000FD010008FD010008FD010008FD01000828
:1000C000FD010008FD010008FD010008FD01000818
:1000D000FD010008FD010008FD010008FD01000808
:1000E000FD010008FD010008FD010008FD010008F8
:1000F000FD010008FD010008FD010008FD010008E8
:10010000FD010008FD010008FD010008FD010008D7
:10011000FD010008FD010008FD010008FD010008C7
:10012000FD010008FD010008FD010008FD010008B7
:10013000FD010008FD010008FD010008FD010008A7
:10014000FD010008FD010008FD010008FD01000897
:10015000FD010008FD010008FD010008FD01000887
:10016000FD010008FD010008FD010008FD01000877
:10017000FD010008FD010008FD010008FD01000867
:10018000FD010008FD01000880B582B000AF154BED
:100190007B60154B3B600BE07B681A683B681A601C
:1001A0003B6803F104033B607B6803F104037B605D
:1001B0003A680E4B9A42EFD30D480E494FF00002B9
:1001C0008842B8BF40F8042BFADBDFF82C00016846
:1001D00041F47001016000F0ADF807F10807BD4679
:1001E00080BD00BF44140008000000200C00002067
:1001F000100000202845002088ED00E080B400AF0A
:10020000FEE700BF80B582B000AF4FF008004FF0AE
:10021000010100F0F5F84FF470433B604FF001032B
:100220003B714FF00003BB714FF003037B714FF044
:100230000003FB713B460448194600F0EFFC07F150
:100240000807BD4680BD00BF000C024080B582B0EB
:1002500000AF786009484FF4805100F083FD4FF003
:10026000FA0000F09FF905484FF4805100F088FD36
:100270004FF0FA0000F096F9ECE700BF000C0240E6
:1002800080B582B000AF78604FF03F0000F08AF98F
:1002900009484FF4005100F065FD4FF0FA0000F0FE
:1002A00081F905484FF4005100F06AFD4FF0BB00A2
:1002B00000F078F9E8E700BF000C024080B582B09A
:1002C00000AF78604FF07D0000F06CF909484FF402
:1002D000804100F047FD4FF0FA0000F063F9054857
:1002E0004FF4804100F04CFD4FF07D0000F05AF9D2
:1002F000E8E700BF000C024080B582B000AF786034
:100300004FF0BB0000F04EF909484FF4004100F0F7
:1003100029FD4FF0FA0000F045F905484FF400417F
:1003200000F02EFD4FF03F0000F03CF9E8E700BF81
:10033000000C024080B584B004AFFFF763FF2B4B85
:100340004FF0010200924FF0000201924FF00002C4
:1003500002924FF000020392254819464FF08002A6
:100360004FF0000300F06EF8204B4FF002020092B5
:100370004FF0000201924FF0000202924FF0000293
:1003800003921C4819464FF080024FF0000300F022
:1003900059F8164B4FF0030200924FF00002019201
:1003A0004FF0000202924FF00002039212481946E9
:1003B0004FF080024FF0000300F044F80B4B4FF079
:1003C000040200924FF0000201924FF000020292EC
:1003D0004FF000020392094819464FF080024FF097
:1003E000000300F02FF800F009F9FEE734140008CC
:1003F0004D02000881020008BD020008F902000851
:1004000080B483B000AF78600B46FB70FB78002BA4
:1004100007D00B4B0A4A116B7A6841EA02021A6351
:1004200008E0074B064A116B7A686FEA020201EA9C
:1004300002021A6307F10C07BD4680BC704700BF7B
:100440000038024080B58AB002AFF860B9603B6006
:100450001346FB80FB881846396B00F095FBB861AA
:10046000BB69002B78D0BB691A6BFB8803F1FF33A3
:100470004FEA8303D3187B617B6923F007037B6119
:10048000FB880093B869B968BA6A7B6B00F084FA9C
:100490007869F9683A6800F041FD03461A46BB697D
:1004A0001A60FB6A002B02D0FB6ABA691A6000F07E
:1004B000B9FD354B1B6803F10102334B1A60334B16
:1004C0001B68002B09D1314BBA691A602E4B1B688F
:1004D000012B0FD100F09EFA0CE02D4B1B68002B76
:1004E00008D12A4B1B68DA6ABB6A9A4202D8274BAA
:1004F000BA691A60BB69DA6A264B1B689A4203D94B
:10050000BB69DA6A234B1A60234B1B6803F10102B3
:10051000214B1A60BB69DA6A204B1B689A4203D9E7
:10052000BB69DA6A1D4B1A60BB69DA6A13464FEA87
:1005300083039B184FEA83031A46194BD218BB69F1
:1005400003F104031046194600F05AFC4FF0010372
:10055000FB6100F075FD02E04FF0FF33FB61FB69CA
:10056000012B0BD10A4B1B68002B07D0074B1B68D4
:10057000DA6ABB6A9A4201D200F048FDFB6918466C
:1005800007F12007BD4680BDE800002010000020D4
:10059000F8000020F00000200C010020F4000020F2
:1005A0001400002080B584B000AF78604FF00003E5
:1005B000FB607B68002B13D000F054F80D4B1A68D9
:1005C0007B68D318BB600C4B1B6803F1040318460F
:1005D00000F078FCB86800F09FFA00F051F8F8607D
:1005E000FB68002B01D100F011FD07F11007BD469B
:1005F00080BD00BFEC0000201000002080B586B058
:1006000004AF144B4FF0000200924FF00002019231
:100610004FF0000202924FF0000203920E4819467A
:100620004FF080024FF00003FFF70CFF78607B680B
:10063000012B0BD100F018FD084B4FF001021A609E
:10064000074B4FF000021A6000F0B8FC07F10807F2
:10065000BD4680BD3814000875090008F800002068
:10066000EC00002080B400AF044B1B6803F10102D2
:10067000024B1A60BD4680BC704700BFFC000020E2
:1006800090B583B000AF4FF000037B6000F0CAFC70
:10069000384B1B6803F1FF32364B1A60354B1B6831
:1006A000002B5ED1344B1B68002B5AD04FF0000357
:1006B0003B602EE0314BDB68DB681C4604F118031D
:1006C000184600F0FFFB04F10403184600F0FAFBA3
:1006D000E26A2B4B1B689A4202D9E26A284B1A60E5
:1006E000E26A13464FEA83039B184FEA83031A46D4
:1006F000244BD21804F104031046194600F080FB85
:10070000E26A214B1B68DB6A9A4202D34FF0010375
:100710003B601A4B1B68002BCCD11C4B1B68002B79
:100720000FD007E000F036F8184B1B6803F1FF32DA
:10073000164B1A60154B1B68002BF3D14FF00103C9
:100740003B603B68012B03D0114B1B68012B08D188
:100750004FF001037B600E4B4FF000021A6000F077
:1007600055FC00F06DFC7B68184607F10C07BD4690
:1007700090BD00BFFC000020E8000020A800002081
:10078000F4000020140000201000002000010020D0
:100790000401002080B584B000AF444B1B68002BDF
:1007A0007AD1434B1B6803F10102414B1A60404B65
:1007B0001B68002B22D13F4B1B68FB603E4B1A6825
:1007C0003C4B1A603C4BFA681A603C4B1B6803F1C7
:1007D00001023A4B1A60374B1B681B68002B04D18F
:1007E000374B4FF0FF321A6008E0324B1B68DB6872
:1007F000DB68BB60BB685A68314B1A602C4B1A68C7
:100800002F4B1B689A424DD32A4B1B681B68002B49
:1008100004D12B4B4FF0FF321A6043E0254B1B688D
:10082000DB68DB68BB60BB685B687B60204B1A6879
:100830007B689A4203D2224B7A681A6032E0BB6826
:1008400003F10403184600F03DFBBB689B6A002BD4
:1008500005D0BB6803F11803184600F033FBBB68F2
:10086000DA6A184B1B689A4203D9BB68DA6A154BDF
:100870001A60BB68DA6A13464FEA83039B184FEA93
:1008800083031A46104BD218BB6803F104031046C9
:10089000194600F0B5FAB7E70C4B1B6803F10102EB
:1008A0000A4B1A6007F11007BD4680BDFC0000200E
:1008B000EC000020A0000020A4000020080100207F
:1008C00000000020F400002014000020000100209F
:1008D00080B483B000AF224B1B68002B0AD0214BA1
:1008E0004FF001021A6036E01F4B1B6803F1FF3224
:1008F0001D4B1A601C4B1A6813464FEA83039B1862
:100900004FEA83031A46194BD3181B68002BEBD010
:10091000154B1A6813464FEA83039B184FEA83036B
:100920001A46124BD3187B607B685B685A687B68F9
:100930005A607B685A687B6803F108039A4204D1C5
:100940007B685B685A687B685A607B685B68DB68B9
:100950001A46074B1A6007F10C07BD4680BC70476A
:10096000FC00002004010020F400002014000020FE
:100970001000002080B582B000AF786000E000BFBA
:1009800000F08CF8034B1B68012BF8D900F03EFBFC
:10099000F6E700BF1400002080B584B000AFF86017
:1009A000B9607A603B60FB6803F134031A46BB68A8
:1009B000104619464FF0100200F000FDFB684FF0A2
:1009C000000283F843207B68042B02D94FF0040314
:1009D0007B60FB687A68DA62FB687A685A64FB6855
:1009E00003F10403184600F0FDF9FB6803F1180356
:1009F000184600F0F7F9FB68FA681A617B68C3F1E2
:100A00000502FB689A61FB68FA685A6207F11007F1
:100A1000BD4680BD80B582B000AF4FF000037B6063
:100A200010E07A6813464FEA83039B184FEA83036A
:100A30001A46124BD318184600F0B0F97B6803F140
:100A400001037B607B68042BEBD90D4800F0A6F90D
:100A50000C4800F0A3F90C4800F0A0F90B4800F096
:100A60009DF90B4800F09AF90A4B054A1A600A4BA7
:100A7000044A1A6007F10807BD4680BD1400002033
:100A8000780000208C000020A8000020BC0000207E
:100A9000D4000020A0000020A400002080B582B077
:100AA00000AF2AE0FFF7DEFD184B1B68002B14BFD8
:100AB000002301237B60FFF7E3FD7B68002B1CD143
:100AC00000F0B0FA114BDB68DB683B603B6803F178
:100AD0000403184600F0F6F90D4B1B6803F1FF32D2
:100AE0000B4B1A600B4B1B6803F1FF32094B1A606A
:100AF00000F0A6FA386800F081F8064B1B68002B5E
:100B0000D0D107F10807BD4680BD00BFBC00002062
:100B1000E8000020D000002080B582B000AF7860EF
:100B2000144B1B687A685A60134B1B687A689A42A8
:100B30000AD2124B1A680F4B1B6803F104031046CC
:100B4000194600F085F911E00D4B1A68094B1B6836
:100B500003F104031046194600F07AF9094B1B68AB
:100B60007A689A4202D2074B7A681A6007F108073E
:100B7000BD4680BD10000020EC000020A400002035
:100B8000A00000200000002080B584B000AF034624
:100B90003960FB804FF0480000F0CAFA0346FB6062
:100BA000FB68002B23D03B68002B07D1FB884FEA62
:100BB0008303184600F0BCFA034600E03B68FA687D
:100BC0001363FB681B6B002B06D1F86800F05EFB1B
:100BD0004FF00003FB600AE0FB681A6BFB884FEAEA
:100BE000830310464FF0A5011A4600F08DFBFB6809
:100BF000184607F11007BD4680BD00BF80B582B022
:100C000000AF78607B681B6B184600F03FFB78688C
:100C100000F03CFB07F10807BD4680BD80B487B0FB
:100C200000AF786039604FF000037B614FF0000344
:100C30003B614FF00003FB604FF000037B6187E0F6
:100C40007B694FF0010202FA03F33B613B681A68CB
:100C50003B6902EA0303FB60FA683B699A4273D17D
:100C60007B681A687B694FEA43034FF0030101FA7E
:100C700003F36FEA03031A407B681A607B681A6803
:100C80003B681B7919467B694FEA430301FA03F37A
:100C90001A437B681A603B681B79012B03D03B68C1
:100CA0001B79022B34D17B689A687B694FEA430336
:100CB0004FF0030101FA03F36FEA03031A407B6864
:100CC0009A607B689A683B685B7919467B694FEA52
:100CD000430301FA03F31A437B689A607B685A68FE
:100CE0007B699BB24FF0010101FA03F36FEA030342
:100CF0001A407B685A607B685A683B689B79194642
:100D00007B699BB201FA03F39BB21A437B685A607A
:100D10007B68DA687B699BB24FEA43034FF00301BB
:100D200001FA03F36FEA03031A407B68DA607B6819
:100D3000DA683B68DB7919467B694FEA430301FABD
:100D400003F31A437B68DA607B6903F101037B617B
:100D50007B690F2B7FF674AF07F11C07BD4680BC83
:100D6000704700BF80B483B000AF78600B467B80D3
:100D70007B687A881A8307F10C07BD4680BC7047F0
:100D800080B483B000AF78600B467B807B687A8844
:100D90005A8307F10C07BD4680BC704780B483B00E
:100DA00000AF78607B6803F108031A467B685A60DD
:100DB0007B684FF0FF329A607B6803F108031A46A4
:100DC0007B68DA607B6803F108031A467B681A6166
:100DD0007B684FF000021A6007F10C07BD4680BC2B
:100DE000704700BF80B483B000AF78607B684FF07D
:100DF00000021A6107F10C07BD4680BC704700BFB6
:100E000080B485B000AF786039607B685B68FB6058
:100E1000FB685A683B685A607B685A683B689A600E
:100E2000FB685B683A689A603A68FB685A603A689F
:100E30007B685A603B687A681A617B681B6803F1BB
:100E400001027B681A6007F11407BD4680BC704739
:100E500080B485B000AF786039603B681B68BB60C8
:100E6000BB68B3F1FF3F03D17B681B69FB600DE0FA
:100E70007B6803F10803FB6002E0FB685B68FB60D2
:100E8000FB685B681A68BB689A42F6D9FB685A68C7
:100E90003B685A603B685B683A689A603B68FA68EE
:100EA0009A603A68FB685A603B687A681A617B68A6
:100EB0001B6803F101027B681A6007F11407BD4645
:100EC00080BC704780B485B000AF78607B685B6899
:100ED0007A6892689A607B689B687A6852685A6000
:100EE0007B681B69FB60FB685A687B689A4203D188
:100EF0007B689A68FB685A607B684FF000021A6151
:100F0000FB681B6803F1FF32FB681A60FB681B6813
:100F1000184607F11407BD4680BC704780B485B001
:100F200000AFF860B9607A60FB68A3F10403FB606E
:100F3000FB684FF080721A60FB68A3F10403FB604A
:100F4000BA68FB681A60FB68A3F10403FB60FB68E6
:100F50004FF000021A60FB68A3F11403FB607A688B
:100F6000FB681A60FB68A3F10403FB60FB686FF089
:100F700002021A60FB68A3F12003FB60FB681846BD
:100F800007F11407BD4680BC704700BF054B1968C8
:100F90000868B0E8F04F80F309884FF0000080F354
:100FA000118870471000002003480068006880F333
:100FB000088862B600DF00BF08ED00E080B500AF32
:100FC0000F4B0F4A126842F47F021A600C4B0C4A16
:100FD000126842F07F421A6000F08EF8094B4FF021
:100FE00000021A6000F09AF8074B074A126842F0B4
:100FF00040421A60FFF7D8FF4FF00003184680BD4B
:1010000020ED00E00400002034EF00E080B400AFE9
:10101000034B4FF080521A60BD4680BC704700BF42
:1010200004ED00E080B500AF00F01EF8034B1B6834
:1010300003F10102014B1A6080BD00BF04000020D3
:1010400080B500AF074B1B6803F1FF32054B1A60F8
:10105000044B1B68002B03D14FF0000000F00EF88A
:1010600080BD00BF04000020EFF311804FF0BF01EE
:1010700081F3118870474FF00003184680F3118800
:10108000704700BFEFF30980114B1A681EF0100F74
:1010900008BF20ED108A20E9F04F10602DE90840CC
:1010A0004FF0BF0080F31188FFF712FC4FF00000F3
:1010B00080F31188BDE8084019680868B0E8F04F6F
:1010C0001EF0100F08BFB0EC108A80F3098870473B
:1010D0001000002080B500AF064B4FF080521A6020
:1010E000FFF7C2FFFFF756FB4FF00000FFF7C6FF08
:1010F00080BD00BF04ED00E080B400AF044B054AA2
:101100001A60054B4FF007021A60BD4680BC70475D
:1011100014E000E03F19010010E000E0DFF80C00EF
:10112000016841F4700101607047000088ED00E043
:1011300080B58AB000AF78604FF00003FB61FFF725
:1011400091FA4C4B1B68002B1BD14B4A4B4B1A603E
:101150004A4B4FF000025A60494B4FF488425A60A4
:10116000474B4FF000021A60434B7B617B694FF4A1
:1011700088425A607B69424A1A603E4B4FF0010236
:101180001A607B68002B0FD03E4B1B887A68D318FF
:101190007B607B6803F00703002B05D07B6823F09E
:1011A000070303F108037B607B68002B5AD07A6841
:1011B00044F2FF339A4255D8304B3B622F4B1B68A9
:1011C0007B6204E07B6A3B627B6A1B687B627B6AB2
:1011D0005A687B689A4203D27B6A1B68002BF1D164
:1011E0007A6A274B9A423DD03B6A1A68254B1B8886
:1011F000D318FB617B6A1A683B6A1A607B6A5A687B
:101200007B68D21A1F4B1B884FEA43039A4222D9AC
:101210007A6A7B68D3183B617B6A5A687B68D21A0A
:101220003B695A607B6A7A685A603B695B68FB601D
:10123000124BBB6102E0BB691B68BB61BB691B68E9
:101240005A68FB689A42F6D3BB691A683B691A6010
:10125000BB693A691A600C4B1A687B6A5B68D21AE0
:10126000094B1A60FFF70CFAFB69184607F12807CB
:10127000BD4680BD20450020100100201045002003
:1012800018450020401400080800002080B586B0F2
:1012900000AF78607B683B617B68002B29D0174BDF
:1012A0001B88C3F100033A69D3183B613B69FB60BB
:1012B000FFF7D8F9FB685B68BB60114B7B6102E00C
:1012C0007B691B687B617B691B685A68BB689A42B3
:1012D000F6D37B691A68FB681A607B69FA681A6042
:1012E000FB685A68074B1B68D218064B1A60FFF759
:1012F000C7F907F11807BD4680BD00BF40140008BC
:101300001045002008000020032AC9B270B408D894
:101310002AB10346121803F8011B9342FBD170BC9B
:1013200070478218044601E004F8011B14F0030F13
:10133000FAD14FF0013303FB01F31FE044F8403CC6
:1013400044F83C3C44F8383C44F8343C44F8303CE5
:1013500044F82C3C44F8283C44F8243C44F8203C15
:1013600044F81C3C44F8183C44F8143C44F8103C45
:1013700044F80C3C44F8083C44F8043C161B254651
:1013800040343F2EDADC2C4607E044F8103C44F8A9
:101390000C3C44F8083C44F8043C161B2546103429
:1013A0000F2EF2DC01E045F8043B541B032CFADC61
:1013B00001E005F8011B9542FBD3B0E741EA0003C9
:1013C00013F0030F0B4670B414BF00240124032A4A
:1013D00094BF002404F001040546D4B9BAB10E78D4
:1013E0002B46013A03F8016B56B1AC1C7AB111F8E7
:1013F000015F2346013A04F8015C0134002DF5D168
:101400002AB19A18002103F8011B9342FBD170BC4A
:101410007047194653F8044BA4F1013626EA040636
:1014200016F0803FDAD1043A45F8044B032A1946F6
:10143000EFD8D3E74C45440049444C450000000038
:0214400010009A
:0C144400FFFFFFFFAAAAAAAA00440000B4
:0400000508000000EF
:00000001FF
